:020000040000fa
:080000000002040000000000f2
:020000040000fa
:040008003c040000b4
:020000040000fa
:04000c003c040000b0
:020000040000fa
:040010003c040000ac
:020000040000fa
:040014003c040000a8
:020000040000fa
:040018003c040000a4
:020000040000fa
:04001c003c040000a0
:020000040000fa
:040020003c0400009c
:020000040000fa
:040024003c04000098
:020000040000fa
:040028003c04000094
:020000040000fa
:04002c003c04000090
:020000040000fa
:040030003c0400008c
:020000040000fa
:04003400e0020000e6
:020000040000fa
:040038003c04000084
:020000040000fa
:04003c003c04000080
:020000040000fa
:040040003c0400007c
:020000040000fa
:04004400b003000005
:020000040000fa
:04004800c4030000ed
:020000040000fa
:04004c003c04000070
:020000040000fa
:040050003c0400006c
:020000040000fa
:040054000e04000096
:020000040000fa
:040058003c04000064
:020000040000fa
:04005c003c04000060
:020000040000fa
:040060003c0400005c
:020000040000fa
:040064003c04000058
:020000040000fa
:040068003c04000054
:020000040000fa
:04006c003c04000050
:020000040000fa
:040070003c0400004c
:020000040000fa
:04007400280400005c
:020000040000fa
:040078003c04000044
:020000040000fa
:04007c003c04000040
:020000040000fa
:040080003c0400003c
:020000040000fa
:040084003c04000038
:020000040000fa
:040088003c04000034
:020000040000fa
:04008c003c04000030
:020000040000fa
:040090003c0400002c
:020000040000fa
:040094003c04000028
:020000040000fa
:040098003c04000024
:020000040000fa
:04009c003c04000020
:020000040000fa
:0400a0003c0400001c
:020000040000fa
:0400a4003c04000018
:020000040000fa
:0400a8003c04000014
:020000040000fa
:0400ac003c04000010
:020000040000fa
:0400b0003c0400000c
:020000040000fa
:0400b4003c04000008
:020000040000fa
:0400b8003c04000004
:020000040000fa
:0400bc003c04000000
:020000040000fa
:0400c0003c040000fc
:020000040000fa
:0400c4003c040000f8
:020000040000fa
:0400c8003c040000f4
:020000040000fa
:0400cc003c040000f0
:020000040000fa
:0400d0003c040000ec
:020000040000fa
:0400d4003c040000e8
:020000040000fa
:0400d8003c040000e4
:020000040000fa
:0400dc003c040000e0
:020000040000fa
:0400e0003c040000dc
:020000040000fa
:0400e4003c040000d8
:020000040000fa
:0400e8003c040000d4
:020000040000fa
:0400ec003c040000d0
:020000040000fa
:0400f0003c040000cc
:020000040000fa
:0400f4003c040000c8
:020000040000fa
:0400f8003c040000c4
:020000040000fa
:0400fc003c040000c0
:020000040000fa
:040100003c040000bb
:020000040000fa
:040104003c040000b7
:020000040000fa
:040108003c040000b3
:020000040000fa
:04010c003c040000af
:020000040000fa
:040110003c040000ab
:020000040000fa
:040114003c040000a7
:020000040000fa
:040118003c040000a3
:020000040000fa
:04011c003c0400009f
:020000040000fa
:040120003c0400009b
:020000040000fa
:040124003c04000097
:020000040000fa
:040128003c04000093
:020000040000fa
:04012c003c0400008f
:020000040000fa
:040130003c0400008b
:020000040000fa
:040134003c04000087
:020000040000fa
:040138003c04000083
:020000040000fa
:04013c003c0400007f
:020000040000fa
:040140003c0400007b
:020000040000fa
:040144003c04000077
:020000040000fa
:040148003c04000073
:020000040000fa
:04014c003c0400006f
:020000040000fa
:040150003c0400006b
:020000040000fa
:040154003c04000067
:020000040000fa
:040158003c04000063
:020000040000fa
:04015c003c0400005f
:020000040000fa
:040160003c0400005b
:020000040000fa
:040164003c04000057
:020000040000fa
:040168003c04000053
:020000040000fa
:04016c003c0400004f
:020000040000fa
:040170003c0400004b
:020000040000fa
:040174003c04000047
:020000040000fa
:040178003c04000043
:020000040000fa
:04017c003c0400003f
:020000040000fa
:040180003c0400003b
:020000040000fa
:040184003c04000037
:020000040000fa
:040188003c04000033
:020000040000fa
:04018c003c0400002f
:020000040000fa
:040190003c0400002b
:020000040000fa
:040194003c04000027
:020000040000fa
:040198003c04000023
:020000040000fa
:04019c003c0400001f
:020000040000fa
:040208003c040000b2
:020000040000fa
:04020c003c040000ae
:020000040000fa
:040210003c040000aa
:020000040000fa
:040214003c040000a6
:020000040000fa
:040218003c040000a2
:020000040000fa
:04021c003c0400009e
:020000040000fa
:040220003c0400009a
:020000040000fa
:040224003c04000096
:020000040000fa
:040228003c04000092
:020000040000fa
:04022c003c0400008e
:020000040000fa
:040230003c0400008a
:020000040000fa
:04023400e0020000e4
:020000040000fa
:040238003c04000082
:020000040000fa
:04023c003c0400007e
:020000040000fa
:040240003c0400007a
:020000040000fa
:04024400b003000003
:020000040000fa
:04024800c4030000eb
:020000040000fa
:04024c003c0400006e
:020000040000fa
:040250003c0400006a
:020000040000fa
:040254000e04000094
:020000040000fa
:040258003c04000062
:020000040000fa
:04025c003c0400005e
:020000040000fa
:040260003c0400005a
:020000040000fa
:040264003c04000056
:020000040000fa
:040268003c04000052
:020000040000fa
:04026c003c0400004e
:020000040000fa
:040270003c0400004a
:020000040000fa
:04027400280400005a
:020000040000fa
:040278003c04000042
:020000040000fa
:04027c003c0400003e
:020000040000fa
:040280003c0400003a
:020000040000fa
:040284003c04000036
:020000040000fa
:040288003c04000032
:020000040000fa
:04028c003c0400002e
:020000040000fa
:040290003c0400002a
:020000040000fa
:040294003c04000026
:020000040000fa
:040298003c04000022
:020000040000fa
:04029c003c0400001e
:020000040000fa
:0402a0003c0400001a
:020000040000fa
:0402a4003c04000016
:020000040000fa
:0402a8003c04000012
:020000040000fa
:0402ac003c0400000e
:020000040000fa
:0402b0003c0400000a
:020000040000fa
:0402b4003c04000006
:020000040000fa
:0402b8003c04000002
:020000040000fa
:0402bc003c040000fe
:020000040000fa
:0402c0003c040000fa
:020000040000fa
:0402c4003c040000f6
:020000040000fa
:0402c8003c040000f2
:020000040000fa
:0402cc003c040000ee
:020000040000fa
:0402d0003c040000ea
:020000040000fa
:0402d4003c040000e6
:020000040000fa
:0402d8003c040000e2
:020000040000fa
:0402dc003c040000de
:020000040000fa
:0402e0003c040000da
:020000040000fa
:0402e4003c040000d6
:020000040000fa
:0402e8003c040000d2
:020000040000fa
:0402ec003c040000ce
:020000040000fa
:0402f0003c040000ca
:020000040000fa
:0402f4003c040000c6
:020000040000fa
:0402f8003c040000c2
:020000040000fa
:0402fc003c040000be
:020000040000fa
:040300003c040000b9
:020000040000fa
:040304003c040000b5
:020000040000fa
:040308003c040000b1
:020000040000fa
:04030c003c040000ad
:020000040000fa
:040310003c040000a9
:020000040000fa
:040314003c040000a5
:020000040000fa
:040318003c040000a1
:020000040000fa
:04031c003c0400009d
:020000040000fa
:040320003c04000099
:020000040000fa
:040324003c04000095
:020000040000fa
:040328003c04000091
:020000040000fa
:04032c003c0400008d
:020000040000fa
:040330003c04000089
:020000040000fa
:040334003c04000085
:020000040000fa
:040338003c04000081
:020000040000fa
:04033c003c0400007d
:020000040000fa
:040340003c04000079
:020000040000fa
:040344003c04000075
:020000040000fa
:040348003c04000071
:020000040000fa
:04034c003c0400006d
:020000040000fa
:040350003c04000069
:020000040000fa
:040354003c04000065
:020000040000fa
:040358003c04000061
:020000040000fa
:04035c003c0400005d
:020000040000fa
:040360003c04000059
:020000040000fa
:040364003c04000055
:020000040000fa
:040368003c04000051
:020000040000fa
:04036c003c0400004d
:020000040000fa
:040370003c04000049
:020000040000fa
:040374003c04000045
:020000040000fa
:040378003c04000041
:020000040000fa
:04037c003c0400003d
:020000040000fa
:040380003c04000039
:020000040000fa
:040384003c04000035
:020000040000fa
:040388003c04000031
:020000040000fa
:04038c003c0400002d
:020000040000fa
:040390003c04000029
:020000040000fa
:040394003c04000025
:020000040000fa
:040398003c04000021
:020000040000fa
:04039c003c0400001d
:020000040000fa
:100400004ff921000e7f24000e018800000000003b
:10041000000020000000e000020032000001200087
:100420002002880014000700750107000000e000aa
:1004300003003a00400125000100200002003700bf
:100440000000200001002000810f70000100320038
:1004500014000700000020000000e000020032004d
:1004600000000200000000005257020000000000df
:100470000040da000000fe004440a90000582700b8
:100480000000e0000300320010002000a0018800fe
:100490004440a800000006008a1f78008b1f7800e7
:1004a0000000060091018800800478000000eb0045
:1004b0001a003700e284440032a0b4009905ba0063
:1004c000e284440032a0b4009906ba00e2844400f9
:1004d00032a0b4000006eb00476fde00fd07b2005b
:1004e000636ce10003003a00ebff07000000eb0043
:1004f0000a003700606ce10004003a00005deb0088
:100500008b05e900fdff3e00040037006168e10053
:10051000010032000086eb000b00070019c7ba008b
:100520001905ba000e04e00003003a000a00e000da
:10053000e0ff3a0000000600fe07b2009e018800be
:100540008a047800f5ff3700395dba008b05e900b1
:100550000c003200295dba008b05e900080032006a
:100560000c00e00003003a00e284440032a0b40032
:10057000f5ff370019ddba008b05e900faff3a00f4
:100580008904e800e184440032a0b40000000600c1
:10059000ec540400000000000456040000000000b9
:1005a00092520400000000002c2004000000000013
:1005b000d01f0400000000006a1f040000000000bb
:1005c0003600f800809fbe00829fbe00849fbe0060
:1005d000869fbe003400f80010002000a0018800b3
:1005e0000600fa00c0c0b300004f780025003700b5
:1005f0002bc8bf000080fb001e01fb006d00b9008e
:10060000000078008200400000d5200000804000fb
:10061000104078000080fb00c400de000e00e800ff
:10062000014878001e4078000004e000110034000a
:100630002bc8bf000080fb009e00fb000101e90009
:100640006d00b900000078008200400000d5200055
:1006500000804000104078004400dd0080407800b9
:100660000e00e8001040780080c070000e00e80026
:10067000014878000e00e80010407800982a070032
:100680001e4fe9001e4078000004e000d8ff3d0046
:100690002bc8bf008080fb00d0cc2c000008b80025
:1006a000c308de000e80e800014878000e80e800f4
:1006b00090407800600f20000088b90000007800aa
:1006c000804078002bc8bf0080c040006300470016
:1006d000014878000e80e80010407800c400dd007a
:1006e000630047001040780080c04000640047006d
:1006f000014878006400470010407800782a07001d
:1007000010002000e22507000000eb00e0250700b4
:100710002bc8bf000040e8002be8b700b1822000e2
:100720009140780040c6b30080cf500003003600ef
:100730002b68ef0010c0b30026e8b7008460a90062
:100740000080fa003400f9004f03be004f02be00e3
:100750004f01be004f00be003600f9000040060009
:100760003400f800881f780018002000a8018800d5
:100770004f0478000000fa0084e0a9000080fa002d
:100780003400f900004006003600f800809fbe00eb
:10079000829fbe00849fbe00869fbe003400f8008a
:1007a00010002000a00188000000fa0040418000f5
:1007b0000000e0000e003200404180000000e9002f
:1007c00040418800404180006100600000407800a6
:1007d0000004e00003003200100020008225070022
:1007e000050037000000eb007f25070002003700fe
:1007f0000000eb007c2507008500a9000080fa00be
:100800003400f9004f03be004f02be004f01be008e
:100810004f00be003600f90000400600801f78003f
:100820003400f80010002000a00188000000fa0049
:1008300030118000004078002ae8b7008560a900e8
:100840000080fa003400f9004f00780000400600f4
:100850003400f800881f780018002000a8018800e4
:100860004f0478000000fa008660a9000080fa00ba
:100870003400f900004006000040da000000fe00ed
:10088000ec8747008e1f78006c87570044002000db
:10089000041f7800000f78006c87570002afbe007d
:1008a000e1bf9f006c805700991707001e00be0033
:1008b0004f077800cf00b10000000600ec8747002a
:1008c0008e1f780011002000a1bf9f006c87570089
:1008d000002f78006c8057008f1707001e007800eb
:1008e0004f077800cf00b10000000600ec874700fa
:1008f0008e1f7800e20f500034003e0090f480001c
:10090000e10f500003003200e20f500011003a00e6
:100910000c003700032220000300e00001003a0031
:100920000040da002002e200020035002822ef0039
:1009300021e2a8002342ab000d003a002342a800a8
:100940000b003700032320000300e00001003a0001
:100950000040da003002e200020035003822ef00e9
:1009600031e2a8003342ab0001003a003342a80054
:10097000820178000b0037003102fb00e10f5000cc
:1009800004003a002322ab00feff3a002411880045
:10099000030037003322ab00feff3a00a4118800a9
:1009a0008301e9000300e000f3ff3a00e10f50008b
:1009b00003003a002302ab00feff32000c003700b8
:1009c0003302ab00feff3200090037006c8757008e
:1009d00033002000031f7800000f7800c1bf9f0084
:1009e000d2bf9f006c8057004d1707005fb997007a
:1009f000020078004f077800cf00b1000000060029
:100a0000000005000001be00220007000470a700de
:100a100003f0a1006509b100160032000d00350099
:100a20006828e10006003500f0ff2f00f1ff2700e5
:100a30000300e00013003b00010028000000050057
:100a400000004000818048008502e900fcff3a0078
:100a500008003700f88f420002003c008000eb00e5
:100a6000000005008100d1000080d3008502e8006d
:100a7000fcff3a000300e00002003b0060001000b1
:100a8000e0801800000006004f89de008201780037
:100a900015023700c70ade00f107b200f50fb200f9
:100aa00008003200e1cf4200020032000170a000d5
:100ab00024000500810f70000100320004080500c9
:100ac00044000500810f700002003a001400050088
:100ad0008502e9000000400081c04800fcff3b00a7
:100ae0000170a000240005006022b800060220006a
:100af0000000d0008180d2000482d2008582d20022
:100b00000000a0000202520083825a00030031005c
:100b10000202420083824a000000a1000603e900ad
:100b2000f3ff3a000000060007f827000783610082
:100b30000638e10004003a00f707200087836100cf
:100b40008703710001003a0003f0a200889fbe00f5
:100b50008a9fbe008c9fbe00470ade000480a10071
:100b6000c71ade000580a100070028000785600085
:100b700087856100f70f20000720e1009e0032000a
:100b80000728e1009c003200010678000400e00024
:100b9000b4003200f7072000878060000170a000d9
:100ba0000500e000c0003200f707200087816100e7
:100bb0000370a000050652000f003a000b50e10040
:100bc0000b0032000308e10002003a000200e100dd
:100bd0007e0032000204500083845800040031007b
:100be0000001fd008101fd008402fd008a05fd0079
:100bf0006044b800210037000520e10005003d00f9
:100c00000001fd008101fd008402fd008a05fd0058
:100c1000050652007a60e100050035000170a10070
:100c20004722dd00848070008a80700063003700f6
:100c30006044b800ef02660007ff2f000706660059
:100c40000500e00006003400f08312008714dd0088
:100c50000511de00071bdd00060171008519de00ad
:100c60007060e10005003500090478008204780016
:100c7000030178008001eb00700656000b50e10084
:100c800003003a000200400083804800040037005f
:100c900060041400e0841c000200580083805800a7
:100ca0000188a300060032008100d1000080d3003b
:100cb0008984d3000884d3000402e80027003700a9
:100cc0000178a30025003a000100e0000300320093
:100cd0008186cf00698656000a0037008c0020000c
:100ce0000000e00004003a00090078008804780061
:100cf0000004eb00700252008086cf000d06460013
:100d00000c06e9007060e100060035008000780004
:100d100009007800880478000004eb007006560093
:100d2000700252000c00e0000c0034008c08dd0062
:100d3000f00316000703de00868070000c00dd0063
:100d4000074bde00060070008c4cdd000743de0020
:100d5000868474000c44dd000c0252006120e10026
:100d600020003500610160000700280087816400d1
:100d7000f7ff270087836400070374000300e00087
:100d80000600320082037300040032000000e80015
:100d9000e08048000188a3000e003a00f70f200011
:100da0000720e1004a003d000170a1004722dd005c
:100db000810072008a8070000000be004f06be00f5
:100dc0004f05be004f04be00000006006000b800e2
:100dd000faff37008100d1000080d3000402e80050
:100de000eeff37000401780089017400c20007009b
:100df0008a807000f1ff37001801070007027800b1
:100e00000001fd008101fd00140107008702780048
:100e1000850372000778a300040032000001fd0082
:100e20008101fd0027010700e4ff37008503620010
:100e30000768a300080032000b50e10003003200f5
:100e4000f0ff2f00f1ff2700dcff37000001fd005d
:100e50008101fd00d9ff37000468a300d7ff3200ed
:100e6000faff3700f8ff2700888360000b003a0084
:100e70000000e00009003a008303640082837300ed
:100e8000020032000200be00ccff37000b50e10030
:100e9000ceff3a000200be00c8ff37001400200059
:100ea000810064003eff3700f8ff2700888361005f
:100eb00004003a000200e00002003a008c007800d2
:100ec000beff3700150020008301640039ff3700a2
:100ed00001f827000000200081007500b7ff3700ef
:100ee000038368000700280007036300470ade0049
:100ef0000480a100c71ade000580a100f70f2000c2
:100f00000720e100420032000728e10040003200e3
:100f1000889fbe008a9fbe008c1f7800f107b20038
:100f2000f307b2000400e000640032000170a0008a
:100f30000500e000680032000370a0008505420053
:100f4000eb07b1000204b8000302b8008484440037
:100f500060854a00020ab800848444000a854a0079
:100f6000030ab80004054500040033000804d0005b
:100f70008984d2000a85d2008b05e9006158e1001e
:100f80003d00350002102000090161000308200027
:100f900089816100f7072000878364000886730059
:100fa000c84cde00c853dd00878474004855de005d
:100fb0000300e000060032008203760004003200e5
:100fc0008904e80060054d000a88a3000c003a007f
:100fd000f70f20000758e10044003d000a70a1000f
:100fe000c75ddd000a8575008a007300090078007e
:100ff0004f0678004f05be004f04be0000000600fb
:101000000a05d1008984d3008b05e800f0ff370082
:10101000881f780006047800900007000702780017
:101020000001fd008101fd008c00070087027800af
:10103000850372000778a300050032000001fd005f
:101040008101fd009f0007004f04780000000600aa
:10105000850372000748a30003003200f0ff2f0051
:10106000f1ff2700f8ff37000000200001f82700fb
:1010700088807000f4ff3700880178004848dd0060
:10108000808171004848de00c850dd00010070001a
:10109000c850de00060478000b0178001600070037
:1010a00088807000d2ff37000500e00005003200a4
:1010b000170020003a0007009dff370081037000f1
:1010c000f9ff3a00860078004f0678004f05be0011
:1010d0004f04be000000050083037100f9ff3200d9
:1010e000270020002e00070094ff370001f827009a
:1010f00086807000f4ff37000100e0002600320017
:10110000610111007810e10023003c006022b8006a
:101110007010e100040035008002780001007800c2
:101120008000eb00700151000200e0000900340073
:1011300070031100062add00822ade008603dd002e
:10114000878272000200de00860bdd00070070005f
:101150008208de0084817100f4ff270004826200af
:1011600084817100040028008482620061026000b2
:1011700005f0a6000000060004827100070032009e
:101180000000e800e0804800000006000002be0009
:101190006000b800efff37006000b80000000600f4
:1011a000889fbe000004eb006138e10016003a00a1
:1011b0000100e00008003a00c800de004800dd0041
:1011c000880020000100e00003003a00c800de00b3
:1011d0004800dd00680444008184cf00e9845400a5
:1011e000060034008908dd00f08314008703de0068
:1011f000878070000900dd000904440061021400ca
:101200004f04be00000006000300e00008003a00a2
:10121000c811de004811dd00880020000300e00056
:1012200003003a00c811de004811dd0068044400e4
:101230008384cf00e9845400060034008919dd005e
:10124000f08314008713de00878171000911dd002f
:1012500009044400e1021400e9ff370027002000e0
:1012600001f0a70017002000470bde00f60fb200c8
:10127000040032000643e8000a0032004702b300cf
:101280000000060001037800f607b20006037000b4
:1012900002003a000703b300000006008702b30013
:1012a0000000060001037800f607b2000603700094
:1012b000020032000770a000000006000760a000d6
:1012c000000006000478a300040032000578a300a3
:1012d000030032000168a30001003a000200be00d2
:1012e0000160a00000000600881f78000304780059
:1012f0000300e00007003d0060001000e0801800df
:1013000060011900e081190002003b0001f02d008e
:10131000030037000400070008f0a70001f0a00058
:101320004f04780000000600889fbe008a9fbe0020
:1013300000827000040271000482710026003200f5
:101340000004be000200be006011b8006b0920005e
:10135000950220000182cf000a0039000541b1004a
:101360000082cf00070039000541b1000982cf009b
:10137000040039000541b1000882cf0001003900a6
:101380000541b10005425200120032000a003b0044
:1013900082817100610164008100d1000080d3006e
:1013a0008984d3000884d3008b05e8000442e80058
:1013b000f7ff3a00070037000804440089844c0016
:1013c00000004800818048008b05e9000442e900e4
:1013d000f9ff3a00030007004f05be004f04be00ae
:1013e0000000060081002000618055000b003d00d8
:1013f0000b00200061fe2f000100e1001d00340001
:1014000082817100610164008904d1000884d300e5
:101410000000e800faff3a0071002000610064005b
:101420000300700002006000090032006104440003
:10143000e0844c000988a500050032008b05e80017
:101440006808e10002003a008904d1000884d30052
:10145000f20f20000258e10005003d00c75ddd00ed
:10146000f907b200898075000800780000000600c6
:101470000bf827008b007800000005000800fa0038
:101480000002be008501780003f0a1000001780091
:10149000a6fd200097f42300860f5100878f590086
:1014a00008003e00f4ff2f00f5972300840f510041
:1014b000858f590055003e000000200001f82300f0
:1014c000600037004f0ade0005002000163d2500b1
:1014d000b7072400860f5100878f590019003e007e
:1014e00036be2c0067012400860f5100878f5900fb
:1014f0000a0036000400e00004003200b2fd2000c3
:101500009304240091fd070048003700b2fd20003d
:101510009304240084fd0700440037000400e00029
:1015200004003200b2fd200093fc230087fd070079
:10153000430037000001be00b0fd200091fc2300f5
:1015400019003700561d2300270e2400860f510076
:10155000878f590016003e00f6dd2e00f70a2400a2
:10156000860f5100878f59000a0036000400e00002
:1015700004003200b2fd2000930c240073fd07002c
:1015800022003700b2fd2000930c240066fd070006
:101590001e0037000400e0000100320001f0a2004c
:1015a00042be2c00630924005ffd070024003700c1
:1015b000f4ff2f00f5f72700840f5100858f5900a5
:1015c000030036000001be0057fd07001d00370074
:1015d00068815700110107006011b80063016000c5
:1015e000e10f5100e08f59000a003200e20f510074
:1015f000e08f59000b003200e00f5100e08f5900de
:101600000d003a004fb89700dfb89700d5000700eb
:101610000c0037004fb89700dfb8970001f0a20028
:10162000070037004fb89700dfb89700cd000700dc
:1016300001f0a200030037004fb89700dfb8970011
:10164000510107000080fa00000006000400fa00c3
:10165000889fbe008a9fbe008c9fbe000004be0013
:101660004708de00f00fb20051092000810f500042
:1016700041003c000806be00e00f5400e08f5c0013
:1016800003003d000805be000bf0a200010037007a
:101690000805be00d1072000810f50000a003c0061
:1016a0000200200003b024000a00be0027fd07004e
:1016b00080bf9f0091bf9f006011b8000800be006e
:1016c00007fe07002b0037000200200003b02400b3
:1016d0000a00be001dfd07000200200003b0240028
:1016e00011fd07000a01be000ffd07000004be0047
:1016f0000200200003f02300041107000000e000b6
:10170000070034000a01be000800be000ffd0700fc
:101710000200200003f8230003fd07000f0037003c
:101720000200200003f02b000800be00f5100700a7
:101730000000e00006003c000a01be000800be00f8
:1017400002fd07000200200003f82300020037001a
:101750000a01be000800be00fcfc0700e00f5600b6
:10176000e08f5e0003003d000004be0009f0a2000f
:10177000010037000004be000800be004f06be0096
:101780004f05be004f04be000080fa0000000600b6
:101790000800fa000002be008501780003f0a100f5
:1017a00000017800a6fd200097f42300860f510069
:1017b000878f590006003e00f4ff2f00f5972300a5
:1017c000840f5100858f5900640036005d0037009a
:1017d0004f0ade0005002000163d2500b707240053
:1017e000860f5100878f590019003e0036be2c002d
:1017f00067012400860f5100878f59000a003e00c0
:101800000400e00004003200b2fd200093fc23003d
:10181000cefc07004f003700b2fd200093fc2300f0
:10182000c1fc0700420037000400e0000400320061
:10183000b2fd200093042400c4fc070040003700e0
:10184000b2fd200093042400b7fc07003c003700e1
:10185000561d2300270e2400860f5100878f590044
:1018600019003e00f6dd2e00f70a2400860f510015
:10187000878f59000a003e000400e0000400320097
:1018800042be2c0063092400b0fc0700280037008a
:1018900042be2c0063092400a3fc07002d00370082
:1018a0000400e00004003200b2fd2000930c24008c
:1018b000a6fc070023003700b2fd2000930c240093
:1018c00099fc07001f003700f4ff2f00f5f72700f1
:1018d000840f5100858f5900030036000001be00bf
:1018e00091fc07001d003700688157004b0007007e
:1018f0006011b80063016000e10f5100e08f5900f2
:1019000009003200e20f5100e08f59000a00320056
:10191000e00f5100e08f59000c003a004fb89700db
:10192000dfb89700070037004fb89700dfb897007f
:101930000c000700090037004fb89700dfb8970088
:1019400001f0a20090000700040037004fb8970094
:10195000dfb897000300070001f0a2000080fa0042
:1019600000000600889fbe008a9fbe008c9fbe00bc
:101970000001be005afd07000004be000001be00c9
:1019800057fd07000005be000200200003f02b00f9
:101990000800be0052fd07000200200003f82300eb
:1019a0006afc07000006be00f2a92a00a3d22300a9
:1019b0000a00be004afd07000001be000c00be0088
:1019c00062fc07000006be000801be000a00be005f
:1019d00043fd07000005be0072a12900c37c23005f
:1019e0000800be003efd0700f243200063ab230069
:1019f0004dfc07000001be000a00be0038fd0700d4
:101a00000001be000c00be0050fc07004f06be00e7
:101a10004f05be004f04be0000000600ea874700e5
:101a2000889fbe008a9fbe008c9fbe008e1f7800dc
:101a30000006be00020478000005be008b0178009d
:101a400003f0a10000017800a0fd200091dc24003b
:101a5000800f5100818f59001e003e0032982f00e8
:101a600023f223000c00be001dfd07000200200031
:101a700003b4240035fc07000200200003b4240056
:101a800029fc07000005be00defb0700800478008b
:101a9000a2fd200093fc23000a00be0010fd0700f9
:101aa0000001be000c00be001ffc07000006be00c7
:101ab000325a2800832823000a00be0008fd0700d0
:101ac0000001be000c00be0017fc0700008cbe0029
:101ad00026003700f0ff2f00f1f72700800f51009c
:101ae000818f5900060036000c01be000c00be00bc
:101af0000dfc0700008cbe008004eb001b003700cb
:101b00004718de00010020006009b1000180b1002b
:101b1000c702dd0004002000040151008581590046
:101b200076875700029fbe000002eb0013002000e2
:101b3000000178008e007800768057004200070090
:101b400080047800e00f5600e08f5e0005003d0045
:101b50001e00be0001f0a200008cbe008904ea0055
:101b6000020037003e1c78002e147800090078002f
:101b70004f0778004f06be004f05be004f04be0061
:101b8000af00b10000000600889fbe008a9fbe0023
:101b90008c9fbe000005be000001be00d0fc070007
:101ba0000004be000a01be00cdfc07000006be0016
:101bb0004288280083c023000800be00c8fc07003c
:101bc000b2aa2a00a3e22300d7fb07000001be004f
:101bd0000c00be00c2fc07000001be000a00be00ef
:101be000dafb07000005be000801be000800be00c9
:101bf000bbfc07000001be000c00be00b8fc0700e3
:101c00000006be00c2c32600636323000800be00b6
:101c1000b3fc0700f27c200003952300c2fb070001
:101c20000001be000c00be00adfc07000001be00bc
:101c30000a00be00c5fb07004f06be004f05be00f0
:101c40004f04be0000000600af17b000889fbe0022
:101c50008a9fbe008c9fbe008e1f7800b0a79f0099
:101c600081af9f000204780003057800f4a79f006d
:101c700004004200c1c82100610078006101b90080
:101c8000b2af9f00c3af9f000a00e9006102b90034
:101c900094af9f00a5af9f00630054008201200015
:101ca000110009000200d8006103b900d6a79f0007
:101cb000e7a79f00e00f5300e08f5b0003003d00ab
:101cc0006000b800d0a79f00e1a79f005fa1970028
:101cd000efa197000280ea008380ea0082012000e1
:101ce00003002000b70f0700cfc1de00000444004e
:101cf000818449005fa29700efa297001fab970075
:101d0000afab97000606520087865a003fa897009f
:101d1000cfa897000002430081824b006eec2f0099
:101d20000f074700c265dd0040c9210080854500de
:101d30006011b8000803be000a04be000205be0020
:101d4000140037006000b800e00f5600e08f5e001e
:101d50000a0035001900be00d4b79f00e5b79f0008
:101d6000f6b79f0087bf9f0047fb07008fbb970018
:101d70007fb39700efb297005fb2970000afbe004d
:101d800061054500e0854d0061064600e0864e0095
:101d9000e4844400840f5500858f5d00e9ff340022
:101da0000805780064f62f000f0242006011b800a9
:101db000b2b79f00c3b79f00840678001e003700ab
:101dc0003c00be004b01be00d4b79f00e5b79f00aa
:101dd000f6b79f0087bf9f0041fc07000001be00cf
:101de0000800be0059fb07000004be005fb2970068
:101df000efb2970061024200e0824a008fbb970079
:101e00007fb397001fa89700afa89700800f5200dc
:101e1000818f5a00eaff340088aebe003fb19700c0
:101e2000cfb1970061014100e0814900b2b79f0046
:101e3000c3b79f000a05e8003fb29700cfb29700f2
:101e40003fa89700cfa89700800f5200818f5a00bb
:101e500008003c003fa69700c255dd00a1ec2f0012
:101e60008f8040008b8540006044b8006022b8003d
:101e7000e4ff37003fa99700cfa99700b2b79f00b2
:101e8000c3b79f0096b79f00a7b79f00bfb2970048
:101e90004228dd00a6f62f000f0343000000430098
:101ea0001004be006de72f008f8646003fb09700fc
:101eb000cfb0970061005000e0805800f0af9f0065
:101ec00081b79f00c205dd008b0543000d0578003a
:101ed0003fb39700cfb397000d0778001900370084
:101ee00002002000033823000800be00f6b79f0060
:101ef00087bf9f00fafb0700c2fa0700e2fa07005b
:101f00000006be000200200003b82400f4fb070016
:101f10000001be000800be0003fb0700b9fa07007d
:101f200000adbe002b00be000c01be0007fb070089
:101f30000004be007fb397008fbb9700610353007e
:101f4000e0835b00e00f5300e08f5b00e4ff3c00a8
:101f50008e0678001fb697000c0178000800be00be
:101f6000340307000004be000200200003e0230049
:101f7000dbfb0700d0020700020020000310240052
:101f8000d7fb07000001be000800be00e6fa07000c
:101f90000005be009bfa07000004be00bafa070065
:101fa0000001be000a00be00dffa07000005be0007
:101fb0001fb19700afb19700e00f5100e08f5900bb
:101fc00022003400ffa997004218dd00a4e72f008b
:101fd0000f024200000042001002be00f80016008e
:101fe0000401be00010378000603e900030033008a
:101ff0008381d1000281d300fbff37000804410038
:10200000898449008100e900030033000201410096
:1020100083814900fbff37000201520083815a008f
:102020000288be00770016000202be000000e90030
:10203000030033008582d1000482d300fbff370008
:10204000d4af9f00e5af9f001d0037001fb397007e
:10205000afb39700e00f5300e08f5b000b003a0036
:10206000ffab97004238dd00a1e72f008f804000d2
:10207000008040001000be004789de00d2af9f0004
:10208000cf89de00e3af9f000d0037000200200083
:1020900003f023009d0e070024002000050020000f
:1020a000d4af9f00e5af9f000000e00009003d00b5
:1020b0006033b800d6af9f00e7af9f0062003700e3
:1020c0005fa89700efa89700e00f5000e08f58003e
:1020d0005d00340061044400e0844c006000b800fe
:1020e0006022b800120037005d01be00e00f520010
:1020f000e08f5a0006003a00e00f5100e08f5900cf
:102100000900320004002000051020000200370002
:10211000f4ff2f00f50f2000821e520083965a0014
:10212000140020000500200061004000e08048000d
:102130003fb19700cfb19700820f5000838f5800b6
:10214000e9ff35001fb39700afb39700e00f5300ce
:10215000e08f5b0023003400e10f5300e08f5b0051
:1021600004003200e20f5300e08f5b001d003a00d4
:102170000e003700ffab97004238dd00a1e72f00cb
:102180008f804000008040001001be0003037800f3
:10219000f607b200a6a79f008203780097a79f00ca
:1021a0001fa19700afa197000d003700ffa997006e
:1021b0004218dd00a6e72f000f0343000000430094
:1021c0001001be0083037800f703b20087a79f00c9
:1021d00082007800f19f9f007f9997008fa1970060
:1021e0000288be005fab9700efab9700e20f530091
:1021f000e08f5b0014003a000a01be0000002000de
:1022000001f82300d4b79f00e5b79f0046fa070006
:102210000005be005fb29700efb29700e00f5200da
:10222000e08f5a00080032000c0178000000200006
:1022300001f823007f0207000001be000a00be0073
:1022400039fa07000005be006011b8000a00be00a0
:102250002c0e07000000e00082003a003fb097001b
:10226000cfb09700ffab9700423add00a2e72f0006
:102270000f014100040241006011b8000300370063
:102280002403be00060171008781710061005000c7
:10229000e08058003fab9700cfab9700860f50000f
:1022a000878f5800f6ff3d00e00f5100e08f590086
:1022b0007a003a0061005300e0805b004200dd00dc
:1022c000a7e72f008f834300008043001200200007
:1022d00003002000f2af9f0083b79f001200200090
:1022e000030020000200370061014100e081490045
:1022f0002002be00e00f5200e08f5a00faff3200c9
:10230000f2af9f0083b79f003fb39700cfb3970012
:1023100061024300e0824b004226dd00a7f62f0059
:102320008f8343000c8643005fa19700efa19700c5
:1023300061004100e08049003fb39700cfb39700b0
:102340000000430081804b00c204dd0040c9210031
:10235000808444001fa99700afa997006100410045
:10236000e08049000000430081804b004201dd0015
:10237000a3ec2f008f81410082814100c3a79f0001
:102380000004e80009077800880678000404be000d
:10239000280037003e00be00bbf907004fa297009f
:1023a000009abe00c4a79f003fa29700c26add004a
:1023b000a6ec2f000f034300850243006033b800f2
:1023c0006055b800d89f9f00e99f9f000404be009d
:1023d0000d0037003800be004901be00f6b79f006f
:1023e00087bf9f00befa07000001be000a00be00c2
:1023f000d6f907000005be007fb397008fbb97009a
:1024000061034300e0834b001fa99700afa9970029
:10241000820f5300838f5b00eeff34005f9c9700b8
:10242000ef9c97000a9ebe0061044400e0844c00cb
:102430008d06e8007faa97008fb297003fb3970000
:10244000cfb397000400430085804b00800f5400f9
:10245000818f5c00cfff3400b0b79f00c1b79f00f1
:102460008afe370098af9f00a9af9f001fb4970066
:10247000afb497000c01ea000a00be00ed010700ae
:102480000005be000200200003b824009f0d0700d5
:102490000000e00020003d004300370098af9f009f
:1024a000a9af9f001fb49700afb497003fb097004b
:1024b000cfb0970061005000e0805800b0b79f0097
:1024c000c1b79f0078045400e0845c00bfb097005f
:1024d0004208dd00a2e72f000f014100000041008b
:1024e0003fb19700cfb19700040037006101510060
:1024f000e081590078045400e0845c002002be00b2
:10250000e00f5200e08f5a00f8ff3200b2b79f0090
:10251000c3b79f002c0037000200200003382300bf
:102520000a00be006efa070036f9070056f90700e8
:102530000006be00bfb29700422fdd00a6e72f00c5
:102540000f0343000e0743000200200003b82400dd
:1025500063fa07000001be000a00be0072f907001e
:1025600028f90700008fbe003fb09700cfb097005a
:1025700061004000e0804800b0b79f00c1b79f00f5
:1025800078044400e0844c004205dd00a1e72f0000
:102590008f8040000a8540000c00be0019f907003a
:1025a000008dbe00080037003fb197004216dd00e5
:1025b000a3e72f008f8141000c8641000a00be0076
:1025c00010f90700008ebe0008017800000020000e
:1025d00001f82300970107000004be003fb29700f6
:1025e000f4af9f008402e80095b79f00c22ddd0084
:1025f000a6e72f000f0343000b054300a7f62f00ab
:102600008f8343008b8543003fb69700cfb697007a
:102610000d0037004a00be001bf907000001be0094
:102620000800be002efa070080a5be0002002000b0
:10263000033823000800be0029fa07000004be008a
:1026400061065600e0865e00e00f5600e08f5e00f7
:10265000f0ff3d006df12f008f8646003fb59700db
:10266000cfb597001c0037005c01be005e00be00c5
:10267000d4b79f00e5b79f0019fa07000001be001c
:102680000800be0031f907000004be0061054500e6
:10269000e0854d00efb297005fb297003fa897002a
:1026a000cfa89700800f5500818f5d0007003c0088
:1026b0003fb19700cfb197000400510085805900c9
:1026c000800f5500818f5d00e7ff340088aebe00ab
:1026d00061055200e0855a00e00f5500e08f5d0073
:1026e0000b0035008ed921000a06e9004266dd00a4
:1026f000a3f62f008f8141000c8641006044b80092
:102700006000b8000a02be000005be00e3ff37000b
:102710007fa29700e20f520005003c00e10f52003b
:1027200010003d000400e00017003200da0037001e
:10273000ffa29700e38f5200d7003a003fb3970003
:102740004232dd00a7f12f008f8343000482430053
:10275000040778003fb39700cfb39700b4af9f0052
:10276000700037001fb097004205dd00a1f12f0077
:102770008f8040000a8540003fb49700cfb4970097
:102780006000b8001d0037001fb197004214dd0043
:10279000a3f12f008f814100088441003fb59700cd
:1027a000cfb597006000b800040037004801be00b4
:1027b000e6f8070061055500e0855d00e00f550073
:1027c000e08f5d00f9ff3d005faa9700efaa970038
:1027d000e00f5200e08f5a000100320001f0a20029
:1027e0008faa9700808abe00ab0037004a01be0066
:1027f000d6f8070061045400e0845c00e00f540048
:10280000e08f5c00f9ff3d000001be005fab970068
:10281000efab9700e00f5300e08f5b000100320048
:1028200001f0a2008fab9700808bbe005f0897007d
:10283000ef089700bcf80700aaf12f000f0545002c
:102840001800200009002000040037005a01be00d3
:10285000bef8070061044400e0844c003fb19700db
:10286000cfb19700820f5400838f5c00f7ff3400d4
:102870008fa99700648141005faa9700efaa970093
:10288000e00f5200e08f5a000100320001f0a20078
:102890000089be0080003700c0ff2f00ffaa97000c
:1028a00000a8b900000047003fb29700cfb29700e0
:1028b00061015200e0815a004211dd0082024000b5
:1028c0005506be000e0278005405be000a01be0087
:1028d0000c00be00d4b79f00e5b79f00f6b79f007d
:1028e00087bf9f0099f807000004be000001be00ea
:1028f0000c00be008cf807000001be000a00be00fc
:1029000092f807005fb29700008abe00efb297000e
:10291000888abe007fb397008fbb97006103530086
:10292000e0835b0064075700e00f5300e08f5b001b
:10293000d9ff3c003faa97003fb39700cfb3970061
:102940000404780023003700c0ff2f00ffaa97007f
:1029500000a8b900800444003fb19700cfb19700b0
:1029600061005100e08059004200dd008084440095
:102970005902be00080778005e06be000c01be00ca
:102980000400be00d4b79f00e5b79f00f6b79f00d4
:1029900087bf9f006df807000005be000001be0064
:1029a0005fb29700efb297000400be005ef8070028
:1029b0000001be000c00be0064f80700008fbe00de
:1029c0008a8cbe007fb397008fbb970061035300d2
:1029d000e0835b0064045400e10f5300e08f5b0070
:1029e000d9ff3c009fb19700421cdd00a4f12f00ed
:1029f0000f024200080442003fb59700cfb5970090
:102a00006000b800040037004801be004ff807001e
:102a100061055500e0855d00e10f5500e08f5d0028
:102a2000f9ff3c005fab9700efab9700e00f53005e
:102a3000e08f5b000b003a000fa997005f0a970038
:102a4000ef0a97000499be007f0b97008f13970041
:102a50000689be008fab9700c0039800d103980091
:102a60000d0037005f0a9700ef0a970005f0a200fb
:102a70000fa997000499be007f0a97008f12970054
:102a800005f0a2000489be0001f0a2000fa9970082
:102a900040019800510198009fa99700678061004c
:102aa0004f0778004f06be004f05be004f04be0022
:102ab000af17b100000006000c00fa00889fbe00ae
:102ac0008a9fbe008c1f78000004be006000b80022
:102ad0006011b800f0b79f0081bf9f0092bf9f00b8
:102ae000a3bf9f00f8b79f0089bf9f007fb29700e8
:102af0008fba97001fbb9700afbb9700443ade0028
:102b0000f07f20000006620020432000800f560066
:102b100042003c006011b8000800be00f90b07003d
:102b20000000e0003d0032007fb097008fb89700b2
:102b30001fb99700afb99700e00f5000e08f580021
:102b4000e00f5900e08f590008003d00020020000e
:102b500003b024000800be00f3f7070002002000c5
:102b600003b02400f9f70700070037000200200037
:102b700003b024000800be00f4f7070002002000a4
:102b800003b02400e8f707000801be00e6f70700dd
:102b90000005be00e03f2000800f56000f003c0003
:102ba000dab79f00ebb79f006044b8007fb0970092
:102bb0008fb897001fb99700afb99700e00f50008a
:102bc000e08f5800e00f5900e08f590013003d00de
:102bd0000800200009f82b00100037006011b80031
:102be0000a00be00c90b07000000e0000700340027
:102bf0000a01be000800be00d4f707000200200052
:102c000003f82300c8f70700030037000a01be00dd
:102c10000800be00cdf707000004be000800be009b
:102c20004f0678004f05be004f04be000080fa003a
:102c300000000600889fbe008a9fbe000204780044
:102c4000f93f2000890f54000d00340002002000dd
:102c500003f82700a2f80700f83fb100890f5400dd
:102c6000150034000200200003f827009cf807003c
:102c7000f83fb100890f54000e003c000e003700f1
:102c800029c02f00890f54000b003d006011b800cf
:102c900093f80700983cb000890f540006003d00ef
:102ca0006011b8008ef80700983cb000890f5400fe
:102cb00001003d0009047800f83fb000cfc4de00f9
:102cc000614db9006044b8000801be0084f80700f7
:102cd0004f05be004f04be000000060080017800d2
:102ce00002003700b15978000201e9000200e0005b
:102cf000fcff3a0000000600889fbe008a9fbe00cd
:102d0000800478000200e0005a00320001407800a0
:102d1000814c780082814400f1f99f00e20f51005c
:102d20005400360091449800a1449800e1f99f00b6
:102d3000d1f99f00e60f51004e003600b1449800d3
:102d4000c1f99f00e80f51004a0036000905ea006a
:102d5000630565000a8444000a055100c1ff2f0085
:102d6000010565000080fb008000eb0012102000d0
:102d700013102000930b0700008cbe000a014400d2
:102d800060b99f0071b99f00e80f55003900360007
:102d900020049800310498004004980051049800e1
:102da00020b99f0031b99f0040b99f0051b99f00e1
:102db000f80f55002f003600600498007104980049
:102dc000000c9800110c9800200c9800310c980011
:102dd000400c9800510c980020b19f0031b19f0029
:102de00040b19f0051b19f0060b19f0071b19f0041
:102df00000b99f0011b99f0064016400780141008f
:102e000002044400020555006011b8000203be0030
:102e10000002be000403be006022b8000000720081
:102e20008180720002017300838173000f003700fc
:102e300008027800009abe00029abe00009abe0006
:102e40000292be00000c9800110c9800220c980011
:102e5000330c9800400c9800510c9800620c9800bc
:102e6000730c98000a02b1000802b000ff0f550071
:102e7000efff3e00090078004f05be004f04be0082
:102e8000000006008201780001017800f1ff2700b0
:102e9000000037000f04b0008e1f78000202780097
:102ea000030178000000e000020032000007780013
:102eb000020037000efc2f000f0747008002eb00d6
:102ec0000100e000010032008102e9000f007800fb
:102ed000e003b1001d0009000018eb0000fc2f000a
:102ee0000f00400000a8eb0023102000a3a79f00c4
:102ef000bea79f00c1a79f00d5a79f000100e000cb
:102f000004003d00b004200080f488000080eb0045
:102f100005003700004feb00fea79f00eea79f00c3
:102f200084007800030007004f0778000f04b10009
:102f3000000006000200fa00881f780000047800f4
:102f4000e2bf9f006481570008007800ce010700af
:102f5000980090000148a300010032000080eb00bf
:102f60004f0478000080fa0000000600889fbe0031
:102f70008a1f7800800478004900900002047800dd
:102f8000800f54000100360000047800080178002a
:102f90006a8544001a00780050ff07001a004400b8
:102fa000000d7800e8844400990c14000048eb0000
:102fb0004f0578004f04be0000000600f28747006e
:102fc000889fbe008a9fbe008c9fbe008e1f780027
:102fd00080047800010578000204780083057800f9
:102fe0006107620002003a008b0f540008003900ac
:102ff000080178008a00780009007800ea030700d9
:103000008b0f540002003900880578001e0037003d
:10301000088655000c017800f00f560001003600bc
:1030200002012000010220007e80570032ff0700cd
:103030008c0678000500370002012000fe80570052
:1030400009007800d8030700f0865600ef8f56007d
:10305000f9ff3e004461de0000ff2f000091b9003f
:1030600002014600fe80570009007800ce030700e9
:103070000e00e00004003a00080178008a007800a1
:1030800009007800c80307000b0078004f0778009c
:103090004f06be004f05be004f04be002f01b10019
:1030a000000006000000050000000500000005000b
:1030b000000178000040eb008080fb008180400030
:1030c000e3e2210063c278000404e00003003a0058
:1030d000f0e2210060c07800000006009201780054
:1030e000934f520004003a00f0e2210060c07800e3
:1030f0000309e800010037000040e800ea4f5000f3
:10310000edff360000000600f6874700889fbe00ee
:103110008a9fbe008c9fbe008e1f780080047800be
:103120000104780083057800040678000000eb00b5
:10313000c0b79f008080eb00d1b79f00e0b79f0031
:10314000f2b79f000008200080bf9f009800780021
:10315000010078000005eb00010037000a05e800d7
:10316000304178000204e0000300320053c2b30093
:10317000834f5100f9ff3a000a00e00004003200da
:103180000a0178000900780087030700180c450041
:103190001807780050c2b3009e4f100033013a0068
:1031a0000e07e8000e0c780010003700cfb0970033
:1031b0000100a0000b003700cfb097000110a00065
:1031c00008003700cfb097000120a00005003700ad
:1031d000cfb097000130a00002003700cfb09700b9
:1031e0000140a000c1b79f00000ce8001800780063
:1031f00090407800b2c2b30082cf5000f1ff32009d
:1032000007003c0002c2b30082cf5000f0ff320042
:1032100032c2b30082cf500007003a00efff370000
:10322000d2c2b30082cf5000e0ff320002c3b3002d
:1032300082cf5000e0ff3200a2c2b30082cf500024
:103240000d003a00000ce8001c80e900000e780038
:1032500010007800e0b79f000000e0000f003d0084
:10326000cfb097000100a200c1b79f000000ea00a4
:10327000e0b79f0009003700ed080700e0b79f00a6
:1032800001003700000ce800180078009000fb00f7
:103290000103b100e98f5000faff36004fb09700ec
:1032a0000008a300020032000010a100c0b79f0078
:1032b00018007800e1c2b30090cf100016003a0069
:1032c0008000eb00d1b79f000000e800000c780000
:1032d000a1c2b30090cf100006003a00000ce80035
:1032e0001c80e900000e780010007800d0b79f0025
:1032f00009003700ce080700d0b79f000100370053
:10330000000ce800180078009000fb000103b100f9
:10331000e98f5000faff36000800780064ff0700cc
:1033200080467800180078001000fb00e6080700cf
:1033300091062000810f50003800320012003c003e
:1033400041062000810f5000340032000a003c008a
:1033500011062000810f50002000320031062000ad
:10336000810f50009a00320051022000810f50005e
:10337000ae003a00a700370071062000810f500010
:10338000aa003c008200370001072000810f500096
:103390005c00320007003c00e1062000810f500075
:1033a00074003200f1062000810f50009f003a00a7
:1033b0003900370051072000810f500027003200ec
:1033c00081072000810f50004200320031072000a9
:1033d000810f500095003a00850037008d80fb007a
:1033e0000c01780000fe2f000f004000bd08070010
:1033f0000000e0009c00320018007800000ce8009b
:103400009041780002fe2f000f014100f880570024
:1034100009007800480307000e0037008d80fb008c
:103420008c0178001200200000fe2f000f004000e9
:10343000cb0807000000e0008b003200180ce80009
:1034400002fe2f000f014100f880570009007800ac
:10345000ba00070000054500840037008d80fb009e
:103460008c0178000001eb0000fe2f000f004000ef
:10347000bb0807000000e0007b003200180ce800e9
:1034800002fe2f000f014100f8805700090078006c
:10349000b4010700efff37008d80fb008c0178003e
:1034a0000001eb0000fe2f000f004000ac080700f9
:1034b0000000e0006c003200180ce80002fe2f0053
:1034c0000f014100f880570009007800f400070060
:1034d000e0ff37008d80fb008c0178000001eb00dd
:1034e00000fe2f000f0040009d0807000000e000d4
:1034f0005d00320018007800000ce8009041780070
:10350000160037008c0178000001eb00010f20004d
:1035100000fe2f000f004000910807000000e000af
:1035200051003200180ce8000fb097009fb09700d0
:103530002fb19700bfb19700e00f5000e08f580007
:10354000e00f5900e08f590003003a008001eb00c2
:1035500082e221004000370083c7b30002fe2f0043
:103560000f014100f880570009007800a60107000c
:10357000b8ff37000b0145008d80fb008c017800ff
:1035800000fe2f000f004000ce0807003600370075
:103590008d80fb000c01780000fe2f000f00400022
:1035a000500807000000e0002f00320018007800eb
:1035b000000ce8009041780002fe2f000f0141004e
:1035c000f8805700090078006d050700a1ff37005b
:1035d00000c8b30080cf560023003a00180ce80062
:1035e0001c80e900000e7800104078000d003700c4
:1035f00000c8b30080cf56001b003a00180ce8004a
:103600001c80e900000e78008001eb0010017800ba
:103610001100370001c8b30081cf560012003a00f4
:10362000180ce800e0df9f000800370050c2b3002c
:10363000e0df9f000e0c78000000eb00c0b79f0099
:10364000e0b79f008080eb00d1b79f0013002000ff
:10365000e2fd2f000f014100f880570009007800bb
:10366000c40007007bff3700180ce8000a00780050
:103670004f0778004f06be004f05be004f04be0046
:103680006f01b100000006008200fa00889fbe00b2
:103690008a1f78000005780082047800c13f9f00ef
:1036a0000004eb0010003700090278008801780060
:1036b000a2f72f000f01410081f72f008f804000fb
:1036c0000a00780090fe070008004000880f5000b4
:1036d00004003d00b004200080f488000084eb006a
:1036e00004003700000478004f3897001004e00011
:1036f000edff3a00080078004f0578004f04be0047
:103700000080fa00000006000000fa00cfb8970021
:1037100068815700e0ed800010007800df010700ad
:103720000080fa0000000600040007005c000700ab
:103730000c010700340107008e003700ec874700ba
:10374000889fbe008a9fbe008c9fbe008e1f78009f
:103750000006780001047800180790002805900002
:1037600098067800cdb79f00b80590003202be00e1
:103770002203be000400be000601be004f18de009a
:103780006011b8008000eb00d0b79f00e1b79f0048
:10379000f2b79f0083bf9f00800478000900e0001b
:1037a000060032006000b8006011b800040250004a
:1037b0008582580006035900878359000e00e000f7
:1037c000020035000d10a100cdb79f000900e000f8
:1037d00005003a004fb097000028a30002003a000d
:1037e0000038a300020032008a00e900010037001f
:1037f0008a007800f8815700a200200008007800b5
:10380000860007000900e00003003a00cfb09700ef
:103810000128a300080032000000e90000814500f3
:10382000b1c2b3000900e00001003200d1c2b30010
:1038300001497800050037000138a3000300320079
:103840000000e90001c2b3008175780048019000d2
:103850000201e90000015100808045004fb297004d
:103860008a0178000c007800d4fd07009c009000cd
:103870000188a3000400320098009000810f5000de
:1038800001003d00010078004f0778004f06be00a0
:103890004f05be004f04be00cf00b100000006007f
:1038a0000200fa00889fbe008a9fbe0000057800d3
:1038b000010478000200780018019000a80590002b
:1038c00098007800b1bf9f00b80490000200e000ab
:1038d000020035000110a100b1bf9f00ea8157002e
:1038e000820020008b0078003002be002003be0062
:1038f00008007800490007003fb99700f000610018
:10390000030032000000e90001c3b30081747800b5
:103910003fb99700e8006100030032000000e900b1
:1039200001c2b30081747800480190000201e900ef
:1039300000015100808044003fba97008b0178005d
:103940000a0078009dfd07009a0090000188a300fe
:103950000400320098009000810f500001003d00eb
:10396000010078004f05be004f04be000080fa0041
:1039700000000600ea874700889fbe008a9fbe00bd
:103980008e1f7800000478000300780072875700cb
:1039900084e2260055c72600049fbe00c39622007d
:1039a000030f78006c875700004feb001105900063
:1039b000a1049000910578000200e00002003200ae
:1039c0000207780001003700728757000000e0000e
:1039d00002003a000e007800450107000a00e000ee
:1039e000030035008a0f5000010036000a007800fd
:1039f0000b02780089017800000178008e007800c1
:103a0000080078006dfd07004f0778004f05be00e5
:103a10004f04be00af00b10000000600f48747006d
:103a2000889fbe008a9fbe008c9fbe008e1f7800bc
:103a30000605be000404be0081bf9f0082b79f0040
:103a4000f3b79f00b0009000e1b79f00130178002a
:103a500092b79f0090069000400690000c06e90087
:103a60000d00e00001003d001d002000efb19700b7
:103a70000c8041000048eb001e0020001f003700b2
:103a80000c06e9000fb09700cf80de006109b90095
:103a9000a0b79f00b1b79f00c2b79f00d3b79f00e8
:103aa0000203be000002be000800be000a01be0004
:103ab000c60b070000077800efb097000c804000ad
:103ac00003c3b300034847008d06e9000fb8970011
:103ad0000000e90080bf9f002fb29700bfb297009f
:103ae0004fb39700dfb397000800be000a01be0085
:103af000af0b07000205be000004be000c00e00092
:103b00000d003200e00f5400e08f5c00e00f5d001c
:103b1000e08f5d00daff3a000d00e000d8ff3c00c6
:103b20008fb897000100e000030034001fb1970038
:103b30000218a300d2ff3a000e00e00002003a0093
:103b4000ffb197001340a1000c0078004f077800e8
:103b50004f06be004f05be004f04be004f01b1002e
:103b6000000006000200fa00889fbe008a9fbe0087
:103b700080047800010478000200780018019000a9
:103b80002805900098007800b1bf9f00b80590000c
:103b90000200e000020035000110a100b1bf9f004b
:103ba000ea815700a20020008a0078003002be009f
:103bb0002003be000800780098ff0700480190002d
:103bc0000201e90000015100808045003fba9700e2
:103bd0008a01780009007800f8fc0700990090003d
:103be0000188a3000400320098009000810f50006b
:103bf00001003d00010078004f05be004f04be00eb
:103c00000080fa0000000600fa874700889fbe0087
:103c10008a9fbe008c9fbe008e1f780080047800b3
:103c200001047800820578001801900028059000b2
:103c300018077800b80090000200e000020035008c
:103c40000e10a10001003700120020007000670074
:103c5000e0b79f00090032003b02be002b03be000c
:103c6000e00f5200e08f5a00e00f5b00e08f5b0036
:103c7000020032008a86e900010037008a067800d7
:103c8000e8026700f5b79f00010032008d06e900e9
:103c90003b02be002b03be00e4af9f00f5af9f00c8
:103ca00086b79f0097b79f00480690000c06e90072
:103cb0000c8040000048eb00efb297007fb2970005
:103cc0008903780081047800d8af9f00020478004f
:103cd0008bbf9f008a057800034578002a003700d3
:103ce0000c06e9006fab97006f006300e90f50000e
:103cf00002003c000003b000010037007005b00076
:103d00000a03fb001604b100f90f53000c003e003b
:103d1000000378000650a0001606b100f90f53000a
:103d200007003e00b4b79f00a5b79f00c7b79f002c
:103d30001e070700cfb39700afb297003fb29700be
:103d400080747e000804e9008d06e9006fa89700e2
:103d5000ffa897000fb197009fb197004600200081
:103d60008301d1000281d3008180d3000080d30081
:103d70000603e900faff3a00e0af9f00f1af9f00b1
:103d800082b79f0093b79f00e10f56000f003600e7
:103d90006fa89700ffa897000fb197009fb19700f9
:103da000e00f5000e08f5800e00f5900e08f5900fd
:103db000cbff3a000800e000c9ff3c000d00e00026
:103dc000020034000e18a300c5ff3a0089007800f5
:103dd000f4b79f00870478005fac97008a417800b1
:103de0000b0578008fbd97000500e0001000320041
:103df0003b02be002b03be00e4af9f00f5af9f0067
:103e000086b79f0097b79f00e00f5200e08f5a00df
:103e1000e00f5b00e08f5b00050032000c06e9005c
:103e200083707e000c06e90000c3b30080707e0042
:103e3000ffb297000500e000030032000c06e90025
:103e400000c2b30080707e00480190000201e900ca
:103e50000c0151008c8040000e0278008a0178002d
:103e60000900780055fc0700990090000188a30024
:103e70000400320098009000810f500001003d00c6
:103e8000010078004f0778004f06be004f05be00c6
:103e90004f04be00af01b100000006000200fa00ae
:103ea000881f780000047800e2bf9f0064815700fb
:103eb00008007800f4fd0700980090000148a30076
:103ec000010032000080eb004f0478000080fa000f
:103ed000000006000000060020dc210000000600b3
:103ee000fdff070000ee8800f0ed880000000600ee
:103ef00080007800040037003104e00002003a003e
:103f00000000510000000600010178000108a30034
:103f1000f9ff3a008101780031017800f4ef2f00b9
:103f2000020242000281ea00020162000408280045
:103f300004016100f7ff320083007800010178007e
:103f40003104e000fdff3a000000510000000600cf
:103f5000889fbe008a1f7800800478004900900086
:103f600002047800800f540001003600000478003d
:103f7000080178006a8544001a00780057fb0700a2
:103f80001a004400000d7800e8844400990c1400e5
:103f90000048eb004f0578004f04be00000006000b
:103fa0001000780051f23700900190000388a300c0
:103fb00001003200e6ff37000348a30001003a0089
:103fc000f7ff070000000600889fbe008a1f7800e8
:103fd00000047800010578000000eb000800e00014
:103fe0001a003200180090000058a3000c003200a4
:103ff000ea04440068009000990f100008003600a1
:10400000b80990000001eb008200780008007800f9
:10401000030001000080eb001900e0000b003200fb
:10402000740044000008eb006c0044000008eb0042
:104030006a0044000008eb000000eb000a00e0000a
:1040400002003200180078001cf207004f057800cb
:104050004f04be0000000600889fbe008a1f780043
:104060000004be000000eb000800e0002900320060
:10407000180090000058a300120032006a054400a6
:10408000680090009a0f100008003600b8099000f0
:104090000001eb00820078000800780003000100b6
:1040a0000080eb001a00e0001a00320074004400a7
:1040b0000008eb006c0044000008eb006a004400bc
:1040c0000008eb00780a900008109000800f520062
:1040d000060031000002520011002000cfa2de00d5
:1040e000612bb90018007800e5f1070000022000fc
:1040f000080040000008eb007e0044000008eb00d0
:104100000000eb000900e000020032001800780017
:10411000eaf107004f0578004f04be0000000600da
:104120000101780080007800e0ed80001000780048
:1041300080fb370000000600ef03b000889fbe0040
:104140008a9fbe008c9fbe008e1f7800c09f9f007c
:104150008346780001007800b0017800f3a79f0043
:1041600010007800f09f9f0021029000d4a79f00cc
:10417000c1029000b59f9f00310790003204be003d
:104180002205be00d8b79f00e9b79f00fab79f008d
:104190008bbf9f006022b8006033b8000800be00eb
:1041a0000a01be00330607000000e0000b003d00de
:1041b0005fb09700efb097007fb197008fb997007d
:1041c00003f0a200d0b79f00e1b79f00f2b79f00b5
:1041d00083bf9f00d0c2b30004003700ffa0970048
:1041e0000128a30008003200b0c2b300004f7800dd
:1041f0005fa197000201e900e2a79f0013002000e1
:1042000083af9f000f0037007fa297000438a30000
:104210000800320000c2b300004f7800dfa2970010
:104220008502e900e5a79f001600200086af9f00e9
:1042300004003700dfa39700e7a79f000004eb000e
:1042400088af9f005fb09700efb097007fb19700f5
:104250008fb99700b7ff0700f4ff2f00f5ff2f007d
:10426000f6ff2f00f7ff2700040260008582600040
:1042700006036100878361006000b800020020002f
:1042800003ff27000020e10001a8e10002b0e100e7
:1042900003b8e1000b003a008d06fb001d04b100dd
:1042a0008fac97000900470001e72100f98f560005
:1042b0000100360041e72100c305070040e7210067
:1042c0001d0237000020e10001a8e10002b0e1007a
:1042d00003b8e1000b0036008d06fb001d04b100a1
:1042e0000fad97000a00470081e72100f98f5600c3
:1042f00001003600c1e72100b3050700c0e7210037
:104300000d02370000c3b3008fad970000f77d00aa
:104310000b00e800000147008d00fb00f3fb2f00bd
:1043200083814000d39f9f0081c7b300f98f510064
:1043300001003e0081c5b300014978000000e8009b
:1043400080af9f006022b8006033b8005fb0970074
:10435000efb097007fb197008fb99700c5050700b0
:104360000000e0005e0032000002eb006044b80094
:104370000a0020000bff230098a79f00a9a79f0019
:10438000baa79f00cba79f0004067800050037005e
:104390000c06e8001fac9700afac97003fad97004c
:1043a000cfad97000802be000a03be000800be00a1
:1043b0000a01be000f0607000002be000203be0095
:1043c00094af9f00a5af9f00b6af9f00c7af9f00ff
:1043d0005fb09700efb097007fb197008fb997005b
:1043e000a40507000000e000e9ff3d009caf9f002e
:1043f0002a0037006022b8000600200007fe2300d4
:104400000800be000a01be00f40607006022b800e2
:104410006033b800970507000000e00016003a007e
:104420006022b80006002000073524000800be0006
:104430000a01be00e90607000004be000205be0036
:104440006022b80006002000073524005fb0970006
:10445000efb097007fb197008fb99700df06070094
:104460000002be000203be00d4b79f00e5b79f0064
:10447000f6b79f0087bf9f006022b80006002000ab
:1044800007fe23000800be000a01be00d306070095
:104490000004be000205be000c06e9000802be00d2
:1044a0000a03be005fb09700efb097007fb197009e
:1044b0008fb997006f0507000000e000cdff3500c1
:1044c0000800be000a01be0090a79f00a1a79f00a0
:1044d000b2a79f00c3a79f009caf9f0009003700b1
:1044e0008000eb0091af9f006022b8000600200022
:1044f00007ff230094a79f00a5a79f00b6a79f00d2
:10450000c7a79f00ff9a9700800120000500e000e8
:10451000010035007f9897000000e800e09f9f00b1
:104520001fa49700afa497003fa59700cfa59700c1
:1045300098b79f00a9b79f00bab79f00cbb79f005d
:104540005fb49700efb497007fb597008fbd9700d9
:104550000006eb003a0037001fb29700afb2970099
:104560003fb39700cfb397000800be000a01be001a
:10457000eb050700770907000002be000203be003a
:10458000d4af9f00e5af9f00f6af9f0087b79f00b5
:10459000600507008002780085a79f001fb2970082
:1045a000afb297003fb39700cfb397005fa89700d3
:1045b000efa897007fa997008fb1970087060700a3
:1045c0000002be000203be000800be000a01be00d9
:1045d000820507000004be000205be006022b8008c
:1045e0000600200007fb23001fb09700afb0970024
:1045f0003fb19700cfb19700780607000002be00d8
:104600000203be0094b79f00a5b79f00b6b79f00f6
:10461000c7b79f000c06e800ff9a97000500e0006e
:1046200007003d006022b8006033b8000800be00fb
:104630000a01be000f0507000000e0000400320080
:104640006f9b9700860f5600c3ff350001003700af
:10465000ec9f9f006022b8000600200007022400a3
:104660001fb09700afb097003fb19700cfb1970050
:104670005a0607000002be000203be0094b79f0066
:10468000a5b79f00b6b79f00c7b79f000800be0040
:104690000a01be00f70407000000e0000d0035002d
:1046a0001fb29700afb297003fb39700cfb3970008
:1046b0000800be000a01be00ee0407000000e00092
:1046c00011003a008fa297000508a30008003200ed
:1046d0000d0037006044b8006055b80098b79f00df
:1046e000a9b79f00bab79f00cbb79f00060037005d
:1046f0006000b8006011b80090b79f00a1b79f009c
:10470000b2b79f00c3b79f001fb29700afb2970028
:104710003fb39700cfb397005fb09700efb097001b
:104720007fb197008fb99700320507000002be00e5
:104730000203be0094b79f00a5b79f00b6b79f00c5
:10474000c7b79f007bfe07000203be000002be0049
:10475000f0ff2f00f1ff2f00f2ff2f00f3ff2700e3
:1047600000046200818462000205630083856300a7
:10477000d8b79f00e9b79f00fab79f008bbf9f0093
:104780006000b8000200200003ff27000040e100a5
:1047900001c8e10002d0e10003d8e100befe320012
:1047a000efa497008986e9000fae97000005eb00a3
:1047b000dab79f008aa79f00daaf9f006c0037002e
:1047c0001fa29700afa297003fa39700cfa3970027
:1047d0001fb09700afb097003fb19700cfb19700df
:1047e0004f050700db0807000004be000205be00fd
:1047f000c8040700800078000100e00007003a00cc
:104800005fa897000000e00004003200dfb09700ce
:104810008100e800e1a79f002e0037000fa197005c
:104820000200e00009003a00dfa997000300e00061
:1048300006003200e0c2b30000777e000c06e800fc
:104840008d06e9001400200084a79f000c0147009a
:10485000dfb29700e5a79f0005007800030037004e
:1048600003c3b300035978000000e9000000e00032
:10487000fbff3a00e0a79f005fb3970006064600e3
:10488000e98f500003003c000003200001004000bd
:10489000020037007005200001004000df9b9700f8
:1048a000f98f530006003e00800078000150a00000
:1048b0001106b100f98f500001003e003b040700d3
:1048c00000777e000c06e800dfb097000180ea0068
:1048d000808646001fa29700afa297003fa39700d3
:1048e000cfa397000800be000a01be00bb05070069
:1048f0000002be000203be001fb09700afb09700d9
:104900003fb19700cfb19700b40407000002be008a
:104910000203be0094b79f00a5b79f00b6b79f00e3
:10492000c7b79f006022b8000600200007fb2300e5
:104930001fa09700afa097003fa19700cfa19700bd
:10494000a60507000004be000205be0098a79f0050
:10495000a9a79f00baa79f00cba79f00dfac970035
:104960008904e900d9af9f006fa59700dab79f00cf
:10497000dfad97000b00ea00ef989700810f500021
:1049800004003d003f99970065005100800f5600dc
:104990008bff39008fa197000300e0001a003a0056
:1049a0005fb297000400e00070003400ff9a9700a7
:1049b0000500e0006d0034007fa397000608a30007
:1049c0006a003a008c004700e0c2b30080487800db
:1049d0000c06e8000400780002c3b3008268780087
:1049e0000000e900fcff3a00dfb39700070646002d
:1049f0008d06e9008786560003003700e0c2b30049
:104a000000777e000c06e8000c0047000048eb0031
:104a10003f9c97008800e900010147000049eb0036
:104a20008001eb009fac97000900e00003003d000f
:104a30008904ea0099af9f001300200012002000b3
:104a40001faa970081037800000478000a0037004d
:104a500081037800a5002000110009000502d8009c
:104a60000002be000703470009c3b30009cb4200a0
:104a70000201e9008d06e9008700e9000400e0007a
:104a8000f3ff3a00e10f5100f1ff32000800780017
:104a900001024700b2c2b3000300e000010032008f
:104aa000d2c2b300024a78000101e9008200470047
:104ab00003c7b3005f9d9700f90f550001003e004a
:104ac00003c5b30083487800820f5600010031000f
:104ad000bd030700ffa5970063806500e20f50004b
:104ae00014003a000d84e9004240a900110034008e
:104af0000e007800fefc07008d06e9008086460067
:104b00008d06470002003700ee6678000000e900dd
:104b10008fa89700810f5000fbff31000100470074
:104b2000080178000103200073f807000001eb0082
:104b3000d2a79f000e007800edfc07007fa297002f
:104b4000dfa19700000178008e0078004f98970051
:104b50001af907004f0778004f06be004f05be0048
:104b60004f04be00ef03b10000000600ffa1970054
:104b70000348a300a1ff3a00a3ff3700000006008e
:104b80008f04b000889fbe008a9fbe008c9fbe002d
:104b90008e1f7800809f9f00f19f9f00c3779f002a
:104ba00001007800b0007800e1a79f0010007800b5
:104bb000d0b79f00ff999700a3019000d3a79f0053
:104bc0007f9a970044029000f4979f00ff9a970005
:104bd000b50690003204be002205be006022b80077
:104be0006033b8000800be000a01be00a103070040
:104bf0000000e00003003d000bf0a200d0c2b300b3
:104c0000040037006fa397000628a30008003200b5
:104c1000b0c2b300804e7800dfa397008703e9009d
:104c2000c7af9f0010002000f0a79f000f003700c3
:104c3000efa097000138a3000800320000c2b300c3
:104c4000804e78005fa197000201e900c2af9f008b
:104c500013002000f3a79f00040037005fa2970015
:104c6000c4af9f008002eb00f5a79f000800be00c4
:104c70000a01be00c1ff0700f4ff2f00f5ff2f005f
:104c8000f6ff2f00f7ff2700040260008582600016
:104c900006036100878361006000b8000200200005
:104ca00003ff27000020e10001a8e10002b0e100bd
:104cb00003b8e10010003a004f7397008600fb0034
:104cc0001104b100ffa3970007804600f98f500040
:104cd00002003e0001e821000100370041e8210008
:104ce0003903070040e8210081fc0700ffa097007e
:104cf00001014000140037000020e10001a8e1009c
:104d000002b0e10003b8e100120036004f719700d5
:104d10008200fb001104b100ffa197000380460050
:104d2000f98f500002003e0081e8210001003700a9
:104d3000c1e8210024030700c0e821006cfc070043
:104d40007fa29700040140006fa29700dfa19700a7
:104d5000190237006022b8006033b8000800be00b6
:104d60000a01be00430307000000e00068003200b3
:104d70006000b8000200200003ff230080af9f0006
:104d800091af9f00a2af9f00b3af9f000007eb0061
:104d90000802be000a03be00d4af9f00e5af9f002b
:104da000f6af9f0087b79f00070037000e07e800a7
:104db0000800be000a01be0080af9f0091af9f00b7
:104dc000a2af9f00b3af9f006022b8000600200092
:104dd000470224000fa897009fa897002fa99700cb
:104de000bfa997007d0407000004be000205be00b5
:104df0000002be000203be005fa89700efa8970064
:104e00007fa997008fb197001a0307000000e00008
:104e1000e6ff3d000006eb000fac97009fac97004b
:104e20002fad9700bfad97002500370040ed2f0054
:104e3000800f570019003d000c00e00016003a00fa
:104e40006022b80006002000073524005fa8970004
:104e5000efa897007fa997008fb197005f04070024
:104e60000002be000203be00d4af9f00e5af9f006a
:104e7000f6af9f0087b79f006022b80006002000b1
:104e8000073524000800be000a01be0053040700d5
:104e90000004be000205be001c0020006022b80015
:104ea00006002000470224000800be000a01be00e0
:104eb0009b0307000004be000205be000e07e900c8
:104ec0000802be000a03be005fa89700efa8970083
:104ed0007fa997008fb19700e60207000000e0006d
:104ee000d2ff35000800be000a01be0080af9f005f
:104ef00091af9f00a2af9f00b3af9f005fac970040
:104f0000efac97007fad97008fb597000800370092
:104f10006022b8000600200007ff230084af9f0036
:104f200095af9f00a6af9f00b7af9f000007eb00b3
:104f3000cf7297000500fb00e3010700d0779f00c8
:104f40005fb39700600020000600e000010035001c
:104f50005fb0970071c6b300df73970081cf530035
:104f60000a003a00dfb097000100e0009b01320028
:104f70009b0137008e0f50009f013c00d0af9f0077
:104f800052c6b30082cf9f001e003700df7197002a
:104f900083cf9f000200370064c6b30084cf9f0018
:104fa0000000e800d0af9f0060c6b3008fca970032
:104fb00080cf520013003a000e00e00008003d00d0
:104fc0006000b8000200200003ff230080af9f00b4
:104fd00091af9f00a2af9f00b3af9f000007eb000f
:104fe00061c6b30081cf9f0070c6b3005f719700a8
:104ff000804f510003003200dfa997008e814100ed
:10500000d3af9f000faa97009faa97002fab9700de
:10501000bfab970094b79f00a5b79f00b6b79f009e
:10502000c7b79f000800be000a01be00d0b79f00ae
:10503000e1b79f00f2b79f0083bf9f000006eb001f
:105040000802be000a03be00b49f9f00c59f9f00d8
:10505000d69f9f00e79f9f00310037001fb2970047
:10506000afb297003fb39700cfb397005fb0970000
:10507000efb097007fb197008fb997002803070022
:10508000b40607000004be000205be00a10207002e
:105090008002780085a79f001fb29700afb29700eb
:1050a0003fb39700cfb397000800be000a01be00cf
:1050b000ca0307005fb29700efb297007fb3970073
:1050c0008fbb9700c50207000002be000203be00ae
:1050d00007f0a200d4b79f00e5b79f00f6b79f0086
:1050e00087bf9f006022b80006002000470224000e
:1050f0001fb09700afb097003fb19700cfb19700b6
:10510000070307000002be000203be0094b79f0021
:10511000a5b79f00b6b79f00c7b79f000c06e80071
:10512000dfaa9700850f5600ccff35003f9c970003
:10513000cf9c97005f9d9700ef9d97006022b8007d
:1051400006002000470124001fb09700afb0970071
:105150003fb19700cfb19700a00307000002be0047
:105160000203be0094b79f00a5b79f00b6b79f008b
:10517000c7b79f005fb09700efb097007fb197006f
:105180008fb997003b0207000000e0000f003500d8
:105190001fb29700afb297003fb39700cfb397000d
:1051a0005fb09700efb097007fb197008fb997007d
:1051b000300207000000e00011003a008fa29700c3
:1051c0000508a300080032000d0037006000b80099
:1051d0006011b80090b79f00a1b79f00b2b79f00c1
:1051e000c3b79f00060037006022b8006033b800e4
:1051f00094b79f00a5b79f00b6b79f00c7b79f00a1
:105200001fb29700afb297003fb39700cfb397009c
:105210000800be000a01be00760207000002be00c0
:105220000203be0084a79f0095a79f00a6a79f002a
:10523000b7a79f0050c6b3008fca970080cf520017
:1052400003003a000003eb00d6b79f0001003700cf
:10525000deb79f007fa697000000eb0090b79f008d
:10526000909f9f00b09f9f008e007800e1979f0065
:10527000660037000faa97009faa97002fab9700f0
:10528000bfab97000fa097009fa097002fa197009a
:10529000bfa19700a20207002e0607000004be006f
:1052a0000205be001b02070000017800efa1970075
:1052b0000348a3000c003a000200e0000a003a0094
:1052c00070c6b3005f729700804f520006003a002c
:1052d000dfb297000500e00003003d001fb3970018
:1052e0000607e800200037009f9b97000700e000ba
:1052f0000b003a005fb097000000e00008003d009e
:10530000e0c2b30080767e000c06e800cfa89700cc
:105310008100e900c1af9f0013002000939f9f0010
:105320008c8046001fb797000300370000c3b3000e
:10533000805878000e07e9000e00e000fbff3a00fd
:105340001fb29700040646000c80460005c3b30058
:10535000054841000c06e8000480ea004fab9700c6
:1053600000034300c6af9f000faa97009faa9700b3
:105370002fab9700bfab97000800be000a01be002c
:10538000160307000fa297009fa297002fa3970074
:10539000bfa39700110207000002be000203be0077
:1053a00007f0a20084a79f0095a79f00a6a79f00d3
:1053b000b7a79f006022b800060020004702240023
:1053c0000fa897009fa897002fa99700bfa9970043
:1053d000530207000002be000203be0084af9f001c
:1053e00095af9f00a6af9f00b7af9f00dfb29700b9
:1053f0008502e900d5b79f003f9b97000603e800b0
:10540000b69f9f008e03780097b79f003f98970044
:10541000dfa89700810f500005003d007f9997009d
:105420004200900065005000800f560091ff390047
:105430006f9797009f9997000300e00006003a00dd
:105440006fa297000448a30003003200e0c2b3003b
:1054500080767e000c06e8000c8046000048eb00d9
