:020000040000fa
:080000000002040000000000f2
:020000040000fa
:100400004f312100007f240000018800000000001f
:100410000a00070011000700000020000000e000b3
:10042000020032000000020000000000240c020064
:10043000000000000040da000000fe004440a90077
:10044000805020000000e000030032000000200087
:10045000a00188004440a80000000600a0d02000b1
:10046000010020001500370062004000e0804800d5
:10047000910188009001ba0062004000e0804800cd
:10048000910188009002ba0062004000e0804800bc
:100490000002eb006028e10004003a000059eb0084
:1004a0008301e900fdff3e00040037006128e10000
:1004b000010032000082eb00050007009101880076
:1004c0001001ba000200e000e7ff3a00000005005a
:1004d000910188008002780062004000e0804800be
:1004e0003559ba008301e900080032002559ba00e5
:1004f0008301e900050032000400e000f4ff32004f
:1005000015d9ba008301e900f1ff3a0000000600a6
:020000040000fa
:020000040002f8
:04aff800aefa0000ad
:020000040000fa
:020000040002f8
:04affc00683f0000aa
:020000040000fa
:10000800180d0000180d0000180d0000180d000054
:10001800180d0000180d0000180d0000180d000044
:10002800180d0000180d0000180d0000f009000060
:10003800180d0000180d0000180d0000640a0000db
:10004800180d0000180d0000180d0000780a0000b7
:10005800180d0000180d0000180d0000180d000004
:10006800180d0000180d0000180d0000180d0000f4
:10007800180d0000180d0000180d0000180d0000e4
:10008800180d0000180d0000180d0000180d0000d4
:10009800180d0000180d0000180d0000180d0000c4
:1000a800180d0000180d0000180d0000180d0000b4
:1000b800180d0000180d0000180d0000180d0000a4
:1000c800180d0000180d0000180d0000180d000094
:1000d800180d0000180d0000180d0000180d000084
:1000e800180d0000180d0000180d0000180d000074
:1000f800180d0000180d0000180d0000180d000064
:10010800180d0000180d0000180d0000180d000053
:10011800180d0000180d0000180d0000180d000043
:10012800180d0000180d0000180d0000180d000033
:10013800180d0000180d0000180d0000180d000023
:10014800180d0000180d0000180d0000180d000013
:10015800180d0000180d0000180d0000180d000003
:10016800180d0000180d0000180d0000180d0000f3
:10017800180d0000180d0000180d0000180d0000e3
:10018800180d0000180d0000180d0000180d0000d3
:10019800180d0000180d0000180d0000180d0000c3
:1001a800180d0000180d0000180d0000180d0000b3
:1001b800180d0000180d0000180d0000180d0000a3
:1001c800180d0000180d0000180d0000180d000093
:1001d800180d0000180d0000180d0000180d000083
:1001e800180d0000180d0000180d0000180d000073
:0801f800180d0000180d0000b5
:020000040000fa
:10020800180d0000180d0000180d0000180d000052
:10021800180d0000180d0000180d0000180d000042
:10022800180d0000180d0000180d0000f00900005e
:10023800180d0000180d0000180d0000640a0000d9
:10024800180d0000180d0000180d0000780a0000b5
:10025800180d0000180d0000180d0000180d000002
:10026800180d0000180d0000180d0000180d0000f2
:10027800180d0000180d0000180d0000180d0000e2
:10028800180d0000180d0000180d0000180d0000d2
:020000040000fa
:020000040000fa
:100f20001400fa00600798007107980080402e00b6
:100f300030079800d0752800200798006e009000b8
:100f4000000f98000e089000e20f50001b003200c6
:100f50000e089000e20f500007003e000e089000bf
:100f60000000e0000b0032000e089000e10f50007e
:100f70000d0032001f0037000e089000e40f5000f3
:100f8000130032000e089000e60f500015003200ea
:100f90001800370070ff2f0050079800f00c200059
:100fa000400798001300370070ff2f00500798008b
:100fb00070062000400798000e0037000080eb000c
:100fc00050079800f00c20004007980009003700f7
:100fd0000080eb0050079800300320004007980085
:100fe000040037000080eb0050079800000120004b
:100ff000400798007e009000100f98001e08900097
:10100000e10f50001b0032001e089000e10f50005d
:10101000070039001e089000e20f50002600320041
:101020001e089000e30f50003400320043003700e8
:101030005e009000be00900001006000001188007a
:101040004e009000401188002e0090001011880082
:1010500002003700301180003047980022c2bf00e4
:10106000614060000004e000faff3a008560a900da
:10107000320037005e009000be009000010060006a
:10108000801188004e009000c01188002e00900052
:101090009011880002003700b011800020479800ae
:1010a00032c2bf00614060000004e000faff3a0075
:1010b00087c0a900210037005e009000be009000ac
:1010c00001006000801288004e009000c01288006d
:1010d0002e0090009012880002003700b0128000ad
:1010e0001047980052c2bf00614060000004e00059
:1010f000faff3a008e40a900100037005e00900011
:10110000be00900001006000801588004e00900035
:10111000c01588002e00900090158800020037004e
:10112000b0158000004f7800b2c2bf00614060007f
:101130000004e000faff3a008f00a9000080fa00e6
:10114000000006000800fa00100798000040eb00bd
:10115000004f78001e009000300798003e0090007d
:10116000e10f50002b0032003e009000e10f5000d4
:10117000070039003e009000e20f500046003200a8
:101180003e009000e30f50006400320083003700ff
:1011900022c2bf00644060000004e0000a00320088
:1011a00030118000104798002342a9002342a80074
:1011b0002242a900301180001047980010c0b300ef
:1011c000004f78002242a90022c2bf0062406000a6
:1011d0000004e00003003a001e80fb002007980096
:1011e000700037002342a9002342a800301180007c
:1011f000104798003011800010479800301180008f
:10120000104798002222a90010c0b300004f7800b8
:101210006200370032c2bf00644060000004e0009a
:101220000a003200b0118000104798003342a90034
:101230003342a8003242a900b01180001047980044
:1012400010c0b300004f78003242a90032c2bf0084
:10125000624060000004e00003003a001e80fb00d2
:10126000200798004f0037003342a9003342a800fe
:10127000b011800010479800b0118000104798000e
:10128000b0118000104798003222a90010c0b300ae
:10129000004f78004100370052c2bf006440600038
:1012a0000004e0000a003200b012800010479800ed
:1012b0005342a9005342a8005242a900b012800034
:1012c0001047980010c0b300004f78005242a900a8
:1012d00052c2bf00624060000004e00003003a0018
:1012e0001e80fb00200798002e0037005342a90003
:1012f0005342a800b012800010479800b01280003e
:1013000010479800b0128000104798005222a900a0
:1013100010c0b300004f780020003700b2c2bf00f9
:10132000644060000004e0000a003200b015800054
:1013300010479800b342a900b342a800b242a900e6
:10134000b01580001047980010c0b300004f78001f
:10135000b242a900b2c2bf00624060000004e000d7
:1013600003003a001e80fb00200798000d003700a4
:10137000b342a900b342a800b015800010479800fe
:10138000b015800010479800b015800010479800f5
:10139000b222a90010c0b300004f78001e80fb00ed
:1013a000200798002e0090000080fa000000060040
:1013b0000200fa00004f7800010037000060fe00d4
:1013c00023c2bf00624060000004e000fbff3a005f
:1013d0001e00fb00201188000080fa0000000600bb
:020000040000fa
:1013e0003600f800809fbe00829fbe00849fbe0032
:1013f000869fbe003400f80000c0b300a001880042
:101400000000fa000040eb0001e8b7000f003700d1
:1014100001c8bf008080fb0000c8bf000081fb0046
:10142000300620000088b900820040004080200083
:1014300000804000104078000080fb004e01070053
:1014400001c8bf000040e80001e8b70001c8bf00c4
:10145000ec4f5000eeff360000c8bf000080fb00dc
:101460004501070010002000d80007000000eb0035
:10147000d600070000c8bf000040e80000e8b70041
:10148000018020009140780020c6b30080cf50003a
:10149000040036000040eb0000e8b70010c0b300c5
:1014a0000bedb7008460a9000080fa003400f90059
:1014b0004f03be004f02be004f01be004f00be00f2
:1014c0003600f900004006003400f800881f78005c
:1014d00008c0b300a80188004f0478000000fa009b
:1014e00084e0a9000080fa003400f9000040060002
:1014f000801f78003400f80000c0b300a00188000d
:101500000000fa003011800002e8b7008560a900f1
:101510000080fa003400f9004f0078000040060017
:101520000000fa00510a200091407800f0c8b30092
:1015300000c0600001c4b30001407000a5e0b70026
:10154000710a200091407800f0c8b30000c060002c
:1015500001c4b30001407000a7e0b700810a200079
:101560009140780080cfb30000c060000024a0004c
:10157000a8e0b700910a200091407800f0c8b300bd
:1015800000c0600001c4b30001407000a9e0b700d2
:10159000310b20009140780080cfb30000c0600084
:1015a0000024a000b3e0b700d10c200091407800e7
:1015b00080cfb30000c060000024a000cde0b700e1
:1015c000010d20009140780080cfb30000c0600082
:1015d0000024a000d0e0b7000000eb000008880065
:1015e0000000eb0030088800f0c7200010088800d9
:1015f000f0f321006008880000002800200888001f
:1016000000002800800888008460a90084e0a90008
:101610009460a80094e0a8008560a9009560a800e7
:1016200042c0bf007f40600042e0b7000080fa0087
:10163000000006000200fa00000f78001e0078008b
:10164000418020007250200006050900b058780043
:10165000020050000080fa00000006000200fa00bc
:101660000bcdbf000004e000050032000040eb009d
:101670000bedb70010002000000f780002003700cb
:101680000000eb00000f78001e0078000080fa00d8
:041690000000060050
:020000040000fa
:101694000000fa000000eb00501688000000eb0088
:1016a400d01688000000eb00101788000000eb0043
:1016b400901788000000eb0050178800f0f12f000d
:1016c400401688000080eb0080168800f05d2f0033
:1016d400c0168800f0fd2f00001788000080eb0082
:1016e400801788000080eb00401788000080fa0013
:1016f400000006000200fa00000f78001e007800c7
:1017040061406000614060004501dd00212e200041
:1017140091407800f0cdb30000c06000024070003a
:10172400e2e2b7000080fa00000006000200fa00be
:10173400000f78001e007800614060006140600086
:101744004501dd00a12c200091407800f0cdb300cc
:1017540000c0600002407000cae2b7000080fa00d6
:10176400000006000200fa00000f78001e00780056
:1017740061406000614060004601dd00a12c200052
:1017840091407800f0cbb30000c0600002407000cc
:10179400cae2b7000080fa00000006000200fa0066
:1017a400000f78001e00780061406000c700dd0073
:1017b400cac2bf000074a10001407000cae2b700b1
:1017c4000080fa00000006000200fa00000f780012
:1017d4001e00780061406000614060004301dd004c
:1017e400b12d20009140780070cfb30000c060009c
:1017f40002407000dbe2b7000080fa00000006003f
:101804000000fa000080eb00601988000000eb0083
:101814008019880010102000201988000000eb00b7
:10182400101988000000eb00001988000080fa00fd
:10183400000006000000fa00260007000080fa00fd
:04184400000006009a
:020000040000fa
:101848000000fa0091ff0700ecff0700f8ff07000f
:101858008000eb0060002000affd07003d0007009e
:101868002dff0700401f20005d000700100020002a
:10187800bbff0700401f2000590007001000200090
:10188800c5ff070080282800c1d020000c000900ef
:10189800b0587800d000b1006eff07000004e000e7
:1018a800fdff3200c0d0200060ff070010002000bc
:1018b8008fff0700401f2000490007000000eb00d1
:1018c8008bff0700401f200045000700f7ff370087
:020000040000fa
:1018d8000000fa00916d20009140780000ccb30020
:1018e80000c060003040b300d9e6b700416a20006c
:1018f8009140780000ccb30000c060004041b300c4
:10190800a4e6b700416c20009140780000ccb300f9
:1019180000c060007040b300c4e6b700316c20001e
:101928009140780000ccb30000c060000034a000f3
:10193800c3e6b700816a20009140780000ccb3006c
:1019480000c060000014a000a8e6b7000080fa00fc
:041958000000060085
:020000040000fa
:10195c000000fa00e013200010128800000028009c
:10196c00001288000080fa00000006000200fa0055
:10197c00004f78001e80fb004012880040c2bf0060
:10198c00614060000004e000fcff32004012800067
:10199c000080fb000080fa00000006000000fa0046
:1019ac000040eb00f1ff07000080fb000080fa0014
:0419bc000000060021
:020000040000fa
:1019c0000200fa00000f780001003700000000005c
:1019d0001e0fe9000080eb009e0f1000fbff3a0095
:1019e0000080fa00000006000200fa00000f7800f4
:1019f00002003700803e2000f1ff07001e0fe900c3
:101a00000080eb009e0f1000faff3a000080fa0001
:041a100000000600cc
:020000040000fa
:101a1400000800000c050000000000000c0d000090
:0c1a2400080500000000000000000000a9
:020000040000fa
:041a30000000fe00b4
:00000001FF
